:030000000201EF0B
:0C01EF00787FE4F6D8FD758149020236E5
:10062E00AABB03160015AABB03160114AABB02200F
:10063E0022AABB0A210012FFFFEEFF10261EAABB44
:10064E0006500000000000AABB025250AABB025482
:0C065E0056AABB025A58AABB0358000061
:03001E00010C00D2
:10050F00120741E4FD7F261207CC8F0C120017E56E
:10051F000BB401FBC2AB12079ED28CE50860FCE462
:10052F00F508E5266401702012066ABF011A12074A
:10053F0070D28CE50860FCE4F508E526B4010912D9
:0F054F0003EDBF0103120844E4F50BD2AB80C0EB
:1007410012085812000E12000612087C12086BE4FF
:10075100F50BF527F50DF528F529F526F510F51119
:0F076100F50EF50FF508D2CAD28ED2ACD2AF2268
:10085800D2CDD2CC75CDFF75CCEC75CBFF75CAEC7B
:03086800C2C922E0
:09000E00C29FD29ED29CD2AC220A
:05000600D288D2A822FF
:10086B00758911E4F58CF58AF58DF58BD2A9D2AB90
:01087B00225A
:09087C00D2BCD2B8C2B9C2BB2241
:03001B0002045389
:10045300C0E0C0F0C083C082C0D075D000C000C06F
:1004630001C002C003C004C005C006C007120017C4
:100473000511E51170020510D3942DE51094004089
:1004830013C28E1206D912055E12070DD28E751095
:1004930000751100758D00758B00D007D006D0054F
:1004A300D004D003D002D001D000D0D0D082D083EA
:0504B300D0F0D0E032A2
:03000B000204B834
:1004B800C0E0C0F0C083C082C0D075D000C000C00A
:1004C80001C002C003C004C005C006C0071200175F
:1004D800050FE50F7002050EC39404E50E94004065
:1004E8000BC28C750801750E00750F00D007D00679
:1004F800D005D004D003D002D001D000D0D0D08213
:07050800D083D0F0D0E032F7
:030003000208856B
:08088500C2AF750B01D2AF32C6
:0300230002011CBB
:10011C00C0E0C0F0C083C082C0D075D000C000C0A9
:0D012C0001C002C003C004C005C006C0072A
:10013900C2AF2098030201CDAF99C298E527B40157
:1001490015BFBB0B7527007528007529008075EF51
:10015900706FF527806EBFAA0375270174122529D0
:10016900F8A6070529E52970020528D39512E5287F
:100179009400403CE4FFFDFCE5122401FBE433FA62
:10018900C3ED9BEA6480F8EC648098500E74122DDC
:10019900F8E662070DBD00010C80DDEF700912055C
:1001A900F1EF700375260175280075290075270080
:1001B900C3E5299414E52894004009752800752998
:0B01C90000752700309902C299D2AFE8
:1001D400D007D006D005D004D003D002D001D0007F
:0B01E400D0D0D082D083D0F0D0E03229
:1006D90078377C007D007BFF7A06792E7E007F06C5
:1006E9001200F6C2ACE4FFFEC29974372FF8E6F5A2
:1006F900993099FD0FBF00010EEF64064E70E9C2F3
:0307090099D2ACD6
:01070C0022CA
:10070D0078377C007D007BFF7A0679347E007F068A
:10071D001200F6C2ACE4FFFEC29974372FF8E6F56D
:10072D00993099FD0FBF00010EEF64064E70E9C2BE
:03073D0099D2ACA2
:010740002296
:10077000782A7C007A06793A7F0512082CC2ACE40C
:10078000FFFEC299742A2FF8E6F5993099FD0FBF44
:0D07900000010EEF64054E70E9C299D2AC75
:01079D002239
:10079E00782A7C007A06793F7F0D12082CC2ACE4D1
:1007AE00FFFEC299742A2FF8E6F5993099FD0FBF16
:0D07BE0000010EEF640D4E70E9C299D2AC3F
:0107CB00220B
:1003ED00C3E50A950CE509940040037F0022E4F56E
:1003FD002AF52BE50AAE097802C333CE33CED8F9F0
:10040D00252BFDE52A3E2420F530AF058F31FF1257
:10041D0007CC742C252BF8A607052BE52B700205B0
:10042D002AC39404E52A6480948040C7E514B52C52
:10043D0012E515B52D0DE516B52E08E517B52F03EB
:05044D007F01227F0089
:010452002287
:10066A00E51B64FB7031E51C6410702BE51D6425E5
:10067A007025E51E6452701FE514FE7C00E4251502
:10068A00F50AEC3EF509C3E50A950CE50994004024
:0A069A00037F00227F01227F00226F
:08088D00C2A712055ED2A722EA
:10084400C294C2927D0A7C007F407E1F120566D24C
:0408540094D2922286
:08089500C29212055ED292220C
:1007CC00E48FE38DE4C2AF75E78175E50175E6460C
:1007DC0075E6B9AFE2F5E7F5E5F5E6F5E3F5E4D254
:0107EC00AF5D
:0107ED0022E9
:1007EE008BE28FE38DE4C2AF75E78175E50275E6A6
:1007FE004675E6B9E4F5E7F5E5F5E6F5E3F5E4D299
:02080E00AF2217
:100810008FE38DE475E78175E50375E64675E6B906
:0C082000E4F5E7F5E5F5E6F5E3F5E42284
:10027B00783E7C007D007BFF7A06794C7E007F09FF
:10028B001200F6E4F9E514FE7C00E42515F549ECC3
:10029B003EF548E4FBFAE549AE487802C333CE336A
:1002AB00CED8F92BFDEE3A2420F547FF1207CC747C
:1002BB00422BF8A6070BBB00010AEB64044A70D66D
:1002CB00E4FAFB74402BF8E662010BBB00010AEB6E
:1002DB0064064A70EE8946C2ACE4FAFBC299743EDE
:1002EB002BF8E6F5993099FD0BBB00010AEB64097D
:0702FB004A70E9C299D2AC80
:0103020022D8
:10030300783E7C007D007BFF7A0679557E007F0571
:100313001200F6E518FE7C00E42519F546EC3EF5DF
:1003230045E4F543F544E546AE457802C333CE33A1
:10033300CED8F92544FDE5433E2420FF741425441B
:10034300F8E6FB1207EE0544E54470020543C39447
:1003530004E5436480948040CDC2ACE4F543F544A6
:10036300C299743E2544F8E6F5993099FD0544E5B4
:0F03730044700205436405454370E5C299D2AC5E
:010382002258
:10038300783E7C007D007BFF7A06795A7E007F05EC
:100393001200F6AF14EFC39401404EEFD394045010
:1003A30048EF24FE601014601314601624037019C0
:1003B300E4FD7F208010E4FD7F22800AE4FD7F249A
:1003C3008004E4FD7F26120810C2ACE4FFFEC2994C
:1003D300743E2FF8E6F5993099FD0FBF00010EEF3B
:0903E30064054E70E9C299D2AC28
:0103EC0022EE
:1006A400783E7C007D007BFF7A06795F7E007F05C3
:1006B4001200F6AF14AD15AB161207EEC2ACE4FF90
:1006C400C299743E2FF8E6F5993099FD0FBF05F0F5
:0406D400C299D2AC49
:0106D80022FF
:1005AB00783E7C007D007BFF7A0679647E007F06B7
:1005BB001200F6E4FCAF14AD151207CC8F42E4FF2A
:1005CB0074402FF8E662040FBF03F58C43C2ACE412
:1005DB00FFC299743E2FF8E6F5993099FD0FBF06CF
:0505EB00F0C299D2AC42
:0105F00022E8
:1005F10085133DE53DB4500612027B7F0122E53DA6
:10060100B452061203037F0122E53DB454061203DE
:10061100837F0122E53DB458061205AB7F0122E537
:0C0621003DB45A061206A47F01227F009F
:01062D0022AA
:0C082C007D007BFF7E001200F6E4F52644
:0B083800E4FF7E147812E4F608DEFCFA
:010843002292
:08055E007D0A7C007FE87E03AA
:080566008E378F388C398D3A75
:10056E00E4F53BF53CC3E53C9538E5376480F8E5AA
:10057E003B6480985026120017E4FFFEC3EF953AB5
:10058E00E5396480F8EE64809850070FBF00010EC5
:0C059E0080EA053CE53C70CD053B80C9BF
:0105AA00222E
:0400170075E13E222F
:1001FB0002050FE493A3F8E493A34003F68001F206
:10020B0008DFF48029E493A3F85407240CC8C33304
:10021B00C4540F4420C8834004F456800146F6DFD3
:10022B00E4800B010204081020408090001EE47E45
:10023B00019360BCA3FF543F30E509541FFEE493C8
:10024B00A360010ECF54C025E060A840B8E493A38F
:10025B00FAE493A3F8E493A3C8C582C8CAC583CABA
:10026B00F0A3C8C582C8CAC583CADFE9DEE780BE72
:0100210000DE
:10002600E709F608DFFA8046E709F208DFFA803EBC
:1000360088828C83E709F0A3DFFA8032E309F608A9
:10004600DFFA8078E309F208DFFA807088828C8311
:10005600E309F0A3DFFA806489828A83E0A3F608C5
:10006600DFFA805889828A83E0A3F208DFFA804C9F
:1000760080D280FA80C680D4806980F28033801076
:1000860080A680EA809A80A880DA80E280CA8033DF
:1000960089828A83ECFAE493A3C8C582C8CCC58357
:1000A600CCF0A3C8C582C8CCC583CCDFE9DEE78027
:1000B6000D89828A83E493A3F608DFF9ECFAA9F0A6
:1000C600EDFB2289828A83ECFAE0A3C8C582C8CCFC
:1000D600C583CCF0A3C8C582C8CCC583CCDFEADE15
:1000E600E880DB89828A83E493A3F208DFF980CC77
:1000F60088F0EF60010E4E60C388F0ED2402B40470
:100106000050B9F582EB2402B4040050AF23234516
:06011600822390007673C5
:00000001FF
